{
  "_format": "hh-sol-artifact-1",
  "contractName": "Upload",
  "sourceName": "contracts/Upload.sol",
  "abi": [
    {
      "inputs": [
        {
          "internalType": "address",
          "name": "_user",
          "type": "address"
        },
        {
          "internalType": "string",
          "name": "url",
          "type": "string"
        }
      ],
      "name": "add",
      "outputs": [],
      "stateMutability": "nonpayable",
      "type": "function"
    },
    {
      "inputs": [
        {
          "internalType": "address",
          "name": "user",
          "type": "address"
        }
      ],
      "name": "allow",
      "outputs": [],
      "stateMutability": "nonpayable",
      "type": "function"
    },
    {
      "inputs": [
        {
          "internalType": "address",
          "name": "user",
          "type": "address"
        }
      ],
      "name": "disallow",
      "outputs": [],
      "stateMutability": "nonpayable",
      "type": "function"
    },
    {
      "inputs": [
        {
          "internalType": "address",
          "name": "_user",
          "type": "address"
        }
      ],
      "name": "display",
      "outputs": [
        {
          "internalType": "string[]",
          "name": "",
          "type": "string[]"
        }
      ],
      "stateMutability": "view",
      "type": "function"
    },
    {
      "inputs": [
        {
          "internalType": "address",
          "name": "_owner",
          "type": "address"
        }
      ],
      "name": "requestAccess",
      "outputs": [],
      "stateMutability": "nonpayable",
      "type": "function"
    },
    {
      "inputs": [
        {
          "internalType": "address",
          "name": "",
          "type": "address"
        },
        {
          "internalType": "uint256",
          "name": "",
          "type": "uint256"
        }
      ],
      "name": "requests",
      "outputs": [
        {
          "internalType": "address",
          "name": "",
          "type": "address"
        }
      ],
      "stateMutability": "view",
      "type": "function"
    },
    {
      "inputs": [],
      "name": "shareAccess",
      "outputs": [
        {
          "components": [
            {
              "internalType": "address",
              "name": "user",
              "type": "address"
            },
            {
              "internalType": "bool",
              "name": "access",
              "type": "bool"
            }
          ],
          "internalType": "struct Upload.Access[]",
          "name": "",
          "type": "tuple[]"
        }
      ],
      "stateMutability": "view",
      "type": "function"
    },
    {
      "inputs": [],
      "name": "viewRequests",
      "outputs": [
        {
          "internalType": "address[]",
          "name": "",
          "type": "address[]"
        }
      ],
      "stateMutability": "view",
      "type": "function"
    }
  ],
  "bytecode": "0x608060405234801561001057600080fd5b50611c35806100206000396000f3fe608060405234801561001057600080fd5b50600436106100885760003560e01c8063a9ed9cb81161005b578063a9ed9cb814610113578063bc8bef811461012f578063eb39113f1461014d578063ff9913e81461017d57610088565b8063022cb2711461008d57806336d6da55146100a9578063521e686d146100c55780639ecebe2a146100e3575b600080fd5b6100a760048036038101906100a291906110d0565b610199565b005b6100c360048036038101906100be9190611243565b61037e565b005b6100cd6103f3565b6040516100da919061135d565b60405180910390f35b6100fd60048036038101906100f891906113b5565b6104be565b60405161010a9190611404565b60405180910390f35b61012d600480360381019061012891906110d0565b61050c565b005b61013761072e565b6040516101449190611518565b60405180910390f35b610167600480360381019061016291906110d0565b610837565b604051610174919061167b565b60405180910390f35b610197600480360381019061019291906110d0565b610a4d565b005b3373ffffffffffffffffffffffffffffffffffffffff168173ffffffffffffffffffffffffffffffffffffffff1603610207576040517f08c379a00000000000000000000000000000000000000000000000000000000081526004016101fe90611720565b60405180910390fd5b6000600460008373ffffffffffffffffffffffffffffffffffffffff1673ffffffffffffffffffffffffffffffffffffffff168152602001908152602001600020905060005b8180549050811015610317573373ffffffffffffffffffffffffffffffffffffffff1682828154811061028357610282611740565b5b9060005260206000200160009054906101000a900473ffffffffffffffffffffffffffffffffffffffff1673ffffffffffffffffffffffffffffffffffffffff1603610304576040517f08c379a00000000000000000000000000000000000000000000000000000000081526004016102fb906117bb565b60405180910390fd5b808061030f9061180a565b91505061024d565b5080339080600181540180825580915050600190039060005260206000200160009091909190916101000a81548173ffffffffffffffffffffffffffffffffffffffff021916908373ffffffffffffffffffffffffffffffffffffffff1602179055505050565b6000808373ffffffffffffffffffffffffffffffffffffffff1673ffffffffffffffffffffffffffffffffffffffff168152602001908152602001600020819080600181540180825580915050600190039060005260206000200160009091909190915090816103ee9190611a5e565b505050565b6060600460003373ffffffffffffffffffffffffffffffffffffffff1673ffffffffffffffffffffffffffffffffffffffff1681526020019081526020016000208054806020026020016040519081016040528092919081815260200182805480156104b457602002820191906000526020600020905b8160009054906101000a900473ffffffffffffffffffffffffffffffffffffffff1673ffffffffffffffffffffffffffffffffffffffff168152602001906001019080831161046a575b5050505050905090565b600460205281600052604060002081815481106104da57600080fd5b906000526020600020016000915091509054906101000a900473ffffffffffffffffffffffffffffffffffffffff1681565b6000600260003373ffffffffffffffffffffffffffffffffffffffff1673ffffffffffffffffffffffffffffffffffffffff16815260200190815260200160002060008373ffffffffffffffffffffffffffffffffffffffff1673ffffffffffffffffffffffffffffffffffffffff16815260200190815260200160002060006101000a81548160ff02191690831515021790555060005b600160003373ffffffffffffffffffffffffffffffffffffffff1673ffffffffffffffffffffffffffffffffffffffff1681526020019081526020016000208054905081101561072a578173ffffffffffffffffffffffffffffffffffffffff16600160003373ffffffffffffffffffffffffffffffffffffffff1673ffffffffffffffffffffffffffffffffffffffff168152602001908152602001600020828154811061065657610655611740565b5b9060005260206000200160000160009054906101000a900473ffffffffffffffffffffffffffffffffffffffff1673ffffffffffffffffffffffffffffffffffffffff1603610717576000600160003373ffffffffffffffffffffffffffffffffffffffff1673ffffffffffffffffffffffffffffffffffffffff16815260200190815260200160002082815481106106f2576106f1611740565b5b9060005260206000200160000160146101000a81548160ff0219169083151502179055505b80806107229061180a565b9150506105a4565b5050565b6060600160003373ffffffffffffffffffffffffffffffffffffffff1673ffffffffffffffffffffffffffffffffffffffff168152602001908152602001600020805480602002602001604051908101604052809291908181526020016000905b8282101561082e578382906000526020600020016040518060400160405290816000820160009054906101000a900473ffffffffffffffffffffffffffffffffffffffff1673ffffffffffffffffffffffffffffffffffffffff1673ffffffffffffffffffffffffffffffffffffffff1681526020016000820160149054906101000a900460ff1615151515815250508152602001906001019061078f565b50505050905090565b60603373ffffffffffffffffffffffffffffffffffffffff168273ffffffffffffffffffffffffffffffffffffffff1614806108f95750600260008373ffffffffffffffffffffffffffffffffffffffff1673ffffffffffffffffffffffffffffffffffffffff16815260200190815260200160002060003373ffffffffffffffffffffffffffffffffffffffff1673ffffffffffffffffffffffffffffffffffffffff16815260200190815260200160002060009054906101000a900460ff165b610938576040517f08c379a000000000000000000000000000000000000000000000000000000000815260040161092f90611b7c565b60405180910390fd5b6000808373ffffffffffffffffffffffffffffffffffffffff1673ffffffffffffffffffffffffffffffffffffffff168152602001908152602001600020805480602002602001604051908101604052809291908181526020016000905b82821015610a425783829060005260206000200180546109b590611881565b80601f01602080910402602001604051908101604052809291908181526020018280546109e190611881565b8015610a2e5780601f10610a0357610100808354040283529160200191610a2e565b820191906000526020600020905b815481529060010190602001808311610a1157829003601f168201915b505050505081526020019060010190610996565b505050509050919050565b6001600260003373ffffffffffffffffffffffffffffffffffffffff1673ffffffffffffffffffffffffffffffffffffffff16815260200190815260200160002060008373ffffffffffffffffffffffffffffffffffffffff1673ffffffffffffffffffffffffffffffffffffffff16815260200190815260200160002060006101000a81548160ff021916908315150217905550600360003373ffffffffffffffffffffffffffffffffffffffff1673ffffffffffffffffffffffffffffffffffffffff16815260200190815260200160002060008273ffffffffffffffffffffffffffffffffffffffff1673ffffffffffffffffffffffffffffffffffffffff16815260200190815260200160002060009054906101000a900460ff1615610cff5760005b600160003373ffffffffffffffffffffffffffffffffffffffff1673ffffffffffffffffffffffffffffffffffffffff16815260200190815260200160002080549050811015610cf9578173ffffffffffffffffffffffffffffffffffffffff16600160003373ffffffffffffffffffffffffffffffffffffffff1673ffffffffffffffffffffffffffffffffffffffff1681526020019081526020016000208281548110610c2657610c25611740565b5b9060005260206000200160000160009054906101000a900473ffffffffffffffffffffffffffffffffffffffff1673ffffffffffffffffffffffffffffffffffffffff1603610ce65760018060003373ffffffffffffffffffffffffffffffffffffffff1673ffffffffffffffffffffffffffffffffffffffff1681526020019081526020016000208281548110610cc157610cc0611740565b5b9060005260206000200160000160146101000a81548160ff0219169083151502179055505b8080610cf19061180a565b915050610b74565b50610e90565b600160003373ffffffffffffffffffffffffffffffffffffffff1673ffffffffffffffffffffffffffffffffffffffff16815260200190815260200160002060405180604001604052808373ffffffffffffffffffffffffffffffffffffffff168152602001600115158152509080600181540180825580915050600190039060005260206000200160009091909190915060008201518160000160006101000a81548173ffffffffffffffffffffffffffffffffffffffff021916908373ffffffffffffffffffffffffffffffffffffffff16021790555060208201518160000160146101000a81548160ff02191690831515021790555050506001600360003373ffffffffffffffffffffffffffffffffffffffff1673ffffffffffffffffffffffffffffffffffffffff16815260200190815260200160002060008373ffffffffffffffffffffffffffffffffffffffff1673ffffffffffffffffffffffffffffffffffffffff16815260200190815260200160002060006101000a81548160ff0219169083151502179055505b6000600460003373ffffffffffffffffffffffffffffffffffffffff1673ffffffffffffffffffffffffffffffffffffffff168152602001908152602001600020905060005b8180549050811015611059578273ffffffffffffffffffffffffffffffffffffffff16828281548110610f0c57610f0b611740565b5b9060005260206000200160009054906101000a900473ffffffffffffffffffffffffffffffffffffffff1673ffffffffffffffffffffffffffffffffffffffff1603611046578160018380549050610f649190611b9c565b81548110610f7557610f74611740565b5b9060005260206000200160009054906101000a900473ffffffffffffffffffffffffffffffffffffffff16828281548110610fb357610fb2611740565b5b9060005260206000200160006101000a81548173ffffffffffffffffffffffffffffffffffffffff021916908373ffffffffffffffffffffffffffffffffffffffff1602179055508180548061100c5761100b611bd0565b5b6001900381819060005260206000200160006101000a81549073ffffffffffffffffffffffffffffffffffffffff02191690559055611059565b80806110519061180a565b915050610ed6565b505050565b6000604051905090565b600080fd5b600080fd5b600073ffffffffffffffffffffffffffffffffffffffff82169050919050565b600061109d82611072565b9050919050565b6110ad81611092565b81146110b857600080fd5b50565b6000813590506110ca816110a4565b92915050565b6000602082840312156110e6576110e5611068565b5b60006110f4848285016110bb565b91505092915050565b600080fd5b600080fd5b6000601f19601f8301169050919050565b7f4e487b7100000000000000000000000000000000000000000000000000000000600052604160045260246000fd5b61115082611107565b810181811067ffffffffffffffff8211171561116f5761116e611118565b5b80604052505050565b600061118261105e565b905061118e8282611147565b919050565b600067ffffffffffffffff8211156111ae576111ad611118565b5b6111b782611107565b9050602081019050919050565b82818337600083830152505050565b60006111e66111e184611193565b611178565b90508281526020810184848401111561120257611201611102565b5b61120d8482856111c4565b509392505050565b600082601f83011261122a576112296110fd565b5b813561123a8482602086016111d3565b91505092915050565b6000806040838503121561125a57611259611068565b5b6000611268858286016110bb565b925050602083013567ffffffffffffffff8111156112895761128861106d565b5b61129585828601611215565b9150509250929050565b600081519050919050565b600082825260208201905092915050565b6000819050602082019050919050565b6112d481611092565b82525050565b60006112e683836112cb565b60208301905092915050565b6000602082019050919050565b600061130a8261129f565b61131481856112aa565b935061131f836112bb565b8060005b8381101561135057815161133788826112da565b9750611342836112f2565b925050600181019050611323565b5085935050505092915050565b6000602082019050818103600083015261137781846112ff565b905092915050565b6000819050919050565b6113928161137f565b811461139d57600080fd5b50565b6000813590506113af81611389565b92915050565b600080604083850312156113cc576113cb611068565b5b60006113da858286016110bb565b92505060206113eb858286016113a0565b9150509250929050565b6113fe81611092565b82525050565b600060208201905061141960008301846113f5565b92915050565b600081519050919050565b600082825260208201905092915050565b6000819050602082019050919050565b60008115159050919050565b6114608161144b565b82525050565b60408201600082015161147c60008501826112cb565b50602082015161148f6020850182611457565b50505050565b60006114a18383611466565b60408301905092915050565b6000602082019050919050565b60006114c58261141f565b6114cf818561142a565b93506114da8361143b565b8060005b8381101561150b5781516114f28882611495565b97506114fd836114ad565b9250506001810190506114de565b5085935050505092915050565b6000602082019050818103600083015261153281846114ba565b905092915050565b600081519050919050565b600082825260208201905092915050565b6000819050602082019050919050565b600081519050919050565b600082825260208201905092915050565b60005b838110156115a0578082015181840152602081019050611585565b60008484015250505050565b60006115b782611566565b6115c18185611571565b93506115d1818560208601611582565b6115da81611107565b840191505092915050565b60006115f183836115ac565b905092915050565b6000602082019050919050565b60006116118261153a565b61161b8185611545565b93508360208202850161162d85611556565b8060005b85811015611669578484038952815161164a85826115e5565b9450611655836115f9565b925060208a01995050600181019050611631565b50829750879550505050505092915050565b600060208201905081810360008301526116958184611606565b905092915050565b600082825260208201905092915050565b7f43616e27742072657175657374206163636573732066726f6d20796f7572736560008201527f6c66000000000000000000000000000000000000000000000000000000000000602082015250565b600061170a60228361169d565b9150611715826116ae565b604082019050919050565b60006020820190508181036000830152611739816116fd565b9050919050565b7f4e487b7100000000000000000000000000000000000000000000000000000000600052603260045260246000fd5b7f5265717565737420616c72656164792073656e74000000000000000000000000600082015250565b60006117a560148361169d565b91506117b08261176f565b602082019050919050565b600060208201905081810360008301526117d481611798565b9050919050565b7f4e487b7100000000000000000000000000000000000000000000000000000000600052601160045260246000fd5b60006118158261137f565b91507fffffffffffffffffffffffffffffffffffffffffffffffffffffffffffffffff8203611847576118466117db565b5b600182019050919050565b7f4e487b7100000000000000000000000000000000000000000000000000000000600052602260045260246000fd5b6000600282049050600182168061189957607f821691505b6020821081036118ac576118ab611852565b5b50919050565b60008190508160005260206000209050919050565b60006020601f8301049050919050565b600082821b905092915050565b6000600883026119147fffffffffffffffffffffffffffffffffffffffffffffffffffffffffffffffff826118d7565b61191e86836118d7565b95508019841693508086168417925050509392505050565b6000819050919050565b600061195b6119566119518461137f565b611936565b61137f565b9050919050565b6000819050919050565b61197583611940565b61198961198182611962565b8484546118e4565b825550505050565b600090565b61199e611991565b6119a981848461196c565b505050565b5b818110156119cd576119c2600082611996565b6001810190506119af565b5050565b601f821115611a12576119e3816118b2565b6119ec846118c7565b810160208510156119fb578190505b611a0f611a07856118c7565b8301826119ae565b50505b505050565b600082821c905092915050565b6000611a3560001984600802611a17565b1980831691505092915050565b6000611a4e8383611a24565b9150826002028217905092915050565b611a6782611566565b67ffffffffffffffff811115611a8057611a7f611118565b5b611a8a8254611881565b611a958282856119d1565b600060209050601f831160018114611ac85760008415611ab6578287015190505b611ac08582611a42565b865550611b28565b601f198416611ad6866118b2565b60005b82811015611afe57848901518255600182019150602085019450602081019050611ad9565b86831015611b1b5784890151611b17601f891682611a24565b8355505b6001600288020188555050505b505050505050565b7f596f7520646f6e27742068617665206163636573730000000000000000000000600082015250565b6000611b6660158361169d565b9150611b7182611b30565b602082019050919050565b60006020820190508181036000830152611b9581611b59565b9050919050565b6000611ba78261137f565b9150611bb28361137f565b9250828203905081811115611bca57611bc96117db565b5b92915050565b7f4e487b7100000000000000000000000000000000000000000000000000000000600052603160045260246000fdfea26469706673582212200d0a0b1fd500097aecbbecd26707ce872a973f63167b6e7dd964a48742111b4b64736f6c63430008130033",
  "linkReferences": {},
  "deployedLinkReferences": {}
}